{
  "_format": "hh-sol-artifact-1",
  "contractName": "LolNFT",
  "sourceName": "contracts/LolNFT.sol",
  "abi": [
    {
      "inputs": [],
      "stateMutability": "nonpayable",
      "type": "constructor"
    },
    {
      "anonymous": false,
      "inputs": [
        {
          "indexed": true,
          "internalType": "address",
          "name": "owner",
          "type": "address"
        },
        {
          "indexed": true,
          "internalType": "address",
          "name": "approved",
          "type": "address"
        },
        {
          "indexed": true,
          "internalType": "uint256",
          "name": "tokenId",
          "type": "uint256"
        }
      ],
      "name": "Approval",
      "type": "event"
    },
    {
      "anonymous": false,
      "inputs": [
        {
          "indexed": true,
          "internalType": "address",
          "name": "owner",
          "type": "address"
        },
        {
          "indexed": true,
          "internalType": "address",
          "name": "operator",
          "type": "address"
        },
        {
          "indexed": false,
          "internalType": "bool",
          "name": "approved",
          "type": "bool"
        }
      ],
      "name": "ApprovalForAll",
      "type": "event"
    },
    {
      "anonymous": false,
      "inputs": [
        {
          "indexed": false,
          "internalType": "address",
          "name": "sender",
          "type": "address"
        },
        {
          "indexed": false,
          "internalType": "uint256",
          "name": "tokenId",
          "type": "uint256"
        }
      ],
      "name": "LolUpdatedURI",
      "type": "event"
    },
    {
      "anonymous": false,
      "inputs": [
        {
          "indexed": false,
          "internalType": "address",
          "name": "sender",
          "type": "address"
        },
        {
          "indexed": false,
          "internalType": "uint256",
          "name": "tokenId",
          "type": "uint256"
        }
      ],
      "name": "NewLolNFTMinted",
      "type": "event"
    },
    {
      "anonymous": false,
      "inputs": [
        {
          "indexed": true,
          "internalType": "address",
          "name": "previousOwner",
          "type": "address"
        },
        {
          "indexed": true,
          "internalType": "address",
          "name": "newOwner",
          "type": "address"
        }
      ],
      "name": "OwnershipTransferred",
      "type": "event"
    },
    {
      "anonymous": false,
      "inputs": [
        {
          "indexed": false,
          "internalType": "address",
          "name": "sender",
          "type": "address"
        },
        {
          "indexed": false,
          "internalType": "uint256",
          "name": "amount",
          "type": "uint256"
        }
      ],
      "name": "PayoutSent",
      "type": "event"
    },
    {
      "anonymous": false,
      "inputs": [
        {
          "indexed": true,
          "internalType": "address",
          "name": "from",
          "type": "address"
        },
        {
          "indexed": true,
          "internalType": "address",
          "name": "to",
          "type": "address"
        },
        {
          "indexed": true,
          "internalType": "uint256",
          "name": "tokenId",
          "type": "uint256"
        }
      ],
      "name": "Transfer",
      "type": "event"
    },
    {
      "inputs": [],
      "name": "MAXSUPPLY",
      "outputs": [
        {
          "internalType": "uint256",
          "name": "",
          "type": "uint256"
        }
      ],
      "stateMutability": "view",
      "type": "function"
    },
    {
      "inputs": [
        {
          "internalType": "address",
          "name": "to",
          "type": "address"
        },
        {
          "internalType": "uint256",
          "name": "tokenId",
          "type": "uint256"
        }
      ],
      "name": "approve",
      "outputs": [],
      "stateMutability": "nonpayable",
      "type": "function"
    },
    {
      "inputs": [
        {
          "internalType": "address",
          "name": "owner",
          "type": "address"
        }
      ],
      "name": "balanceOf",
      "outputs": [
        {
          "internalType": "uint256",
          "name": "",
          "type": "uint256"
        }
      ],
      "stateMutability": "view",
      "type": "function"
    },
    {
      "inputs": [
        {
          "internalType": "uint256",
          "name": "tokenId",
          "type": "uint256"
        },
        {
          "internalType": "string",
          "name": "tokenURI",
          "type": "string"
        }
      ],
      "name": "buyURLUpdate",
      "outputs": [],
      "stateMutability": "payable",
      "type": "function"
    },
    {
      "inputs": [],
      "name": "cost",
      "outputs": [
        {
          "internalType": "uint256",
          "name": "",
          "type": "uint256"
        }
      ],
      "stateMutability": "view",
      "type": "function"
    },
    {
      "inputs": [
        {
          "internalType": "uint256",
          "name": "tokenId",
          "type": "uint256"
        }
      ],
      "name": "getApproved",
      "outputs": [
        {
          "internalType": "address",
          "name": "",
          "type": "address"
        }
      ],
      "stateMutability": "view",
      "type": "function"
    },
    {
      "inputs": [
        {
          "internalType": "address",
          "name": "owner",
          "type": "address"
        },
        {
          "internalType": "address",
          "name": "operator",
          "type": "address"
        }
      ],
      "name": "isApprovedForAll",
      "outputs": [
        {
          "internalType": "bool",
          "name": "",
          "type": "bool"
        }
      ],
      "stateMutability": "view",
      "type": "function"
    },
    {
      "inputs": [
        {
          "internalType": "string",
          "name": "tokenURI",
          "type": "string"
        }
      ],
      "name": "makeALolNFT",
      "outputs": [],
      "stateMutability": "nonpayable",
      "type": "function"
    },
    {
      "inputs": [],
      "name": "name",
      "outputs": [
        {
          "internalType": "string",
          "name": "",
          "type": "string"
        }
      ],
      "stateMutability": "view",
      "type": "function"
    },
    {
      "inputs": [],
      "name": "owner",
      "outputs": [
        {
          "internalType": "address",
          "name": "",
          "type": "address"
        }
      ],
      "stateMutability": "view",
      "type": "function"
    },
    {
      "inputs": [
        {
          "internalType": "uint256",
          "name": "tokenId",
          "type": "uint256"
        }
      ],
      "name": "ownerOf",
      "outputs": [
        {
          "internalType": "address",
          "name": "",
          "type": "address"
        }
      ],
      "stateMutability": "view",
      "type": "function"
    },
    {
      "inputs": [],
      "name": "payoutWallet",
      "outputs": [],
      "stateMutability": "nonpayable",
      "type": "function"
    },
    {
      "inputs": [],
      "name": "renounceOwnership",
      "outputs": [],
      "stateMutability": "nonpayable",
      "type": "function"
    },
    {
      "inputs": [
        {
          "internalType": "address",
          "name": "from",
          "type": "address"
        },
        {
          "internalType": "address",
          "name": "to",
          "type": "address"
        },
        {
          "internalType": "uint256",
          "name": "tokenId",
          "type": "uint256"
        }
      ],
      "name": "safeTransferFrom",
      "outputs": [],
      "stateMutability": "nonpayable",
      "type": "function"
    },
    {
      "inputs": [
        {
          "internalType": "address",
          "name": "from",
          "type": "address"
        },
        {
          "internalType": "address",
          "name": "to",
          "type": "address"
        },
        {
          "internalType": "uint256",
          "name": "tokenId",
          "type": "uint256"
        },
        {
          "internalType": "bytes",
          "name": "_data",
          "type": "bytes"
        }
      ],
      "name": "safeTransferFrom",
      "outputs": [],
      "stateMutability": "nonpayable",
      "type": "function"
    },
    {
      "inputs": [
        {
          "internalType": "address",
          "name": "operator",
          "type": "address"
        },
        {
          "internalType": "bool",
          "name": "approved",
          "type": "bool"
        }
      ],
      "name": "setApprovalForAll",
      "outputs": [],
      "stateMutability": "nonpayable",
      "type": "function"
    },
    {
      "inputs": [
        {
          "internalType": "uint256",
          "name": "_newCost",
          "type": "uint256"
        }
      ],
      "name": "setCost",
      "outputs": [],
      "stateMutability": "nonpayable",
      "type": "function"
    },
    {
      "inputs": [
        {
          "internalType": "bytes4",
          "name": "interfaceId",
          "type": "bytes4"
        }
      ],
      "name": "supportsInterface",
      "outputs": [
        {
          "internalType": "bool",
          "name": "",
          "type": "bool"
        }
      ],
      "stateMutability": "view",
      "type": "function"
    },
    {
      "inputs": [],
      "name": "symbol",
      "outputs": [
        {
          "internalType": "string",
          "name": "",
          "type": "string"
        }
      ],
      "stateMutability": "view",
      "type": "function"
    },
    {
      "inputs": [
        {
          "internalType": "uint256",
          "name": "tokenId",
          "type": "uint256"
        }
      ],
      "name": "tokenURI",
      "outputs": [
        {
          "internalType": "string",
          "name": "",
          "type": "string"
        }
      ],
      "stateMutability": "view",
      "type": "function"
    },
    {
      "inputs": [
        {
          "internalType": "address",
          "name": "from",
          "type": "address"
        },
        {
          "internalType": "address",
          "name": "to",
          "type": "address"
        },
        {
          "internalType": "uint256",
          "name": "tokenId",
          "type": "uint256"
        }
      ],
      "name": "transferFrom",
      "outputs": [],
      "stateMutability": "nonpayable",
      "type": "function"
    },
    {
      "inputs": [
        {
          "internalType": "address",
          "name": "newOwner",
          "type": "address"
        }
      ],
      "name": "transferOwnership",
      "outputs": [],
      "stateMutability": "nonpayable",
      "type": "function"
    }
  ],
  "bytecode": "0x608060405260016009553480156200001657600080fd5b506040518060400160405280600681526020017f4c6f6c4e465400000000000000000000000000000000000000000000000000008152506040518060400160405280600381526020017f4c4f4c000000000000000000000000000000000000000000000000000000000081525081600090805190602001906200009b929190620002c2565b508060019080519060200190620000b4929190620002c2565b505050620000d7620000cb6200012860201b60201c565b6200013060201b60201c565b620001226040518060400160405280601781526020017f4c6f6c776172652e6e6574204e46542050726f6a656374000000000000000000815250620001f660201b6200121f1760201c565b6200049f565b600033905090565b6000600760009054906101000a900473ffffffffffffffffffffffffffffffffffffffff16905081600760006101000a81548173ffffffffffffffffffffffffffffffffffffffff021916908373ffffffffffffffffffffffffffffffffffffffff1602179055508173ffffffffffffffffffffffffffffffffffffffff168173ffffffffffffffffffffffffffffffffffffffff167f8be0079c531659141344cd1fd0a4f28419497f9722a3daafe3b4186f6b6457e060405160405180910390a35050565b62000296816040516024016200020d9190620003b3565b6040516020818303038152906040527f41304fac000000000000000000000000000000000000000000000000000000007bffffffffffffffffffffffffffffffffffffffffffffffffffffffff19166020820180517bffffffffffffffffffffffffffffffffffffffffffffffffffffffff83818316178352505050506200029960201b60201c565b50565b60008151905060006a636f6e736f6c652e6c6f679050602083016000808483855afa5050505050565b828054620002d09062000429565b90600052602060002090601f016020900481019282620002f4576000855562000340565b82601f106200030f57805160ff191683800117855562000340565b8280016001018555821562000340579182015b828111156200033f57825182559160200191906001019062000322565b5b5090506200034f919062000353565b5090565b5b808211156200036e57600081600090555060010162000354565b5090565b60006200037f82620003d7565b6200038b8185620003e2565b93506200039d818560208601620003f3565b620003a8816200048e565b840191505092915050565b60006020820190508181036000830152620003cf818462000372565b905092915050565b600081519050919050565b600082825260208201905092915050565b60005b8381101562000413578082015181840152602081019050620003f6565b8381111562000423576000848401525b50505050565b600060028204905060018216806200044257607f821691505b602082108114156200045957620004586200045f565b5b50919050565b7f4e487b7100000000000000000000000000000000000000000000000000000000600052602260045260246000fd5b6000601f19601f8301169050919050565b61398980620004af6000396000f3fe6080604052600436106101355760003560e01c8063715018a6116100ab578063a22cb4651161006f578063a22cb46514610400578063b88d4fde14610429578063c87b56dd14610452578063e985e9c51461048f578063f2fde38b146104cc578063f6045953146104f557610135565b8063715018a614610351578063758b4e86146103685780638488bb4e146103935780638da5cb5b146103aa57806395d89b41146103d557610135565b80631e108dc8116100fd5780631e108dc81461023357806323b872dd1461025c57806342842e0e1461028557806344a0d68a146102ae5780636352211e146102d757806370a082311461031457610135565b806301ffc9a71461013a57806306fdde0314610177578063081812fc146101a2578063095ea7b3146101df57806313faede614610208575b600080fd5b34801561014657600080fd5b50610161600480360381019061015c9190612627565b610511565b60405161016e9190612bd2565b60405180910390f35b34801561018357600080fd5b5061018c6105f3565b6040516101999190612bed565b60405180910390f35b3480156101ae57600080fd5b506101c960048036038101906101c491906126ba565b610685565b6040516101d69190612b42565b60405180910390f35b3480156101eb57600080fd5b50610206600480360381019061020191906125eb565b61070a565b005b34801561021457600080fd5b5061021d610822565b60405161022a9190612f32565b60405180910390f35b34801561023f57600080fd5b5061025a60048036038101906102559190612679565b610828565b005b34801561026857600080fd5b50610283600480360381019061027e91906124e5565b6108f7565b005b34801561029157600080fd5b506102ac60048036038101906102a791906124e5565b610957565b005b3480156102ba57600080fd5b506102d560048036038101906102d091906126ba565b610977565b005b3480156102e357600080fd5b506102fe60048036038101906102f991906126ba565b6109fd565b60405161030b9190612b42565b60405180910390f35b34801561032057600080fd5b5061033b60048036038101906103369190612480565b610aaf565b6040516103489190612f32565b60405180910390f35b34801561035d57600080fd5b50610366610b67565b005b34801561037457600080fd5b5061037d610bef565b60405161038a9190612f32565b60405180910390f35b34801561039f57600080fd5b506103a8610bf4565b005b3480156103b657600080fd5b506103bf610d5e565b6040516103cc9190612b42565b60405180910390f35b3480156103e157600080fd5b506103ea610d88565b6040516103f79190612bed565b60405180910390f35b34801561040c57600080fd5b50610427600480360381019061042291906125af565b610e1a565b005b34801561043557600080fd5b50610450600480360381019061044b9190612534565b610e30565b005b34801561045e57600080fd5b50610479600480360381019061047491906126ba565b610e92565b6040516104869190612bed565b60405180910390f35b34801561049b57600080fd5b506104b660048036038101906104b191906124a9565b610fe4565b6040516104c39190612bd2565b60405180910390f35b3480156104d857600080fd5b506104f360048036038101906104ee9190612480565b611078565b005b61050f600480360381019061050a91906126e3565b611170565b005b60007f80ac58cd000000000000000000000000000000000000000000000000000000007bffffffffffffffffffffffffffffffffffffffffffffffffffffffff1916827bffffffffffffffffffffffffffffffffffffffffffffffffffffffff191614806105dc57507f5b5e139f000000000000000000000000000000000000000000000000000000007bffffffffffffffffffffffffffffffffffffffffffffffffffffffff1916827bffffffffffffffffffffffffffffffffffffffffffffffffffffffff1916145b806105ec57506105eb826112b8565b5b9050919050565b60606000805461060290613193565b80601f016020809104026020016040519081016040528092919081815260200182805461062e90613193565b801561067b5780601f106106505761010080835404028352916020019161067b565b820191906000526020600020905b81548152906001019060200180831161065e57829003601f168201915b5050505050905090565b600061069082611322565b6106cf576040517f08c379a00000000000000000000000000000000000000000000000000000000081526004016106c690612e52565b60405180910390fd5b6004600083815260200190815260200160002060009054906101000a900473ffffffffffffffffffffffffffffffffffffffff169050919050565b6000610715826109fd565b90508073ffffffffffffffffffffffffffffffffffffffff168373ffffffffffffffffffffffffffffffffffffffff161415610786576040517f08c379a000000000000000000000000000000000000000000000000000000000815260040161077d90612eb2565b60405180910390fd5b8073ffffffffffffffffffffffffffffffffffffffff166107a561138e565b73ffffffffffffffffffffffffffffffffffffffff1614806107d457506107d3816107ce61138e565b610fe4565b5b610813576040517f08c379a000000000000000000000000000000000000000000000000000000000815260040161080a90612d92565b60405180910390fd5b61081d8383611396565b505050565b60095481565b6000610834600861144f565b905060028110610879576040517f08c379a000000000000000000000000000000000000000000000000000000000815260040161087090612ed2565b60405180910390fd5b610883338261145d565b61088d818361147b565b61089760086114ef565b6108ba60405180606001604052806025815260200161390e602591398233611505565b7f12c9ad2dfd04c490543cd0a892501f0a7dabe51b9b91164f0071f322ccb5255a33826040516108eb929190612ba9565b60405180910390a15050565b61090861090261138e565b826115a4565b610947576040517f08c379a000000000000000000000000000000000000000000000000000000000815260040161093e90612f12565b60405180910390fd5b610952838383611682565b505050565b61097283838360405180602001604052806000815250610e30565b505050565b61097f61138e565b73ffffffffffffffffffffffffffffffffffffffff1661099d610d5e565b73ffffffffffffffffffffffffffffffffffffffff16146109f3576040517f08c379a00000000000000000000000000000000000000000000000000000000081526004016109ea90612e72565b60405180910390fd5b8060098190555050565b6000806002600084815260200190815260200160002060009054906101000a900473ffffffffffffffffffffffffffffffffffffffff169050600073ffffffffffffffffffffffffffffffffffffffff168173ffffffffffffffffffffffffffffffffffffffff161415610aa6576040517f08c379a0000000000000000000000000000000000000000000000000000000008152600401610a9d90612dd2565b60405180910390fd5b80915050919050565b60008073ffffffffffffffffffffffffffffffffffffffff168273ffffffffffffffffffffffffffffffffffffffff161415610b20576040517f08c379a0000000000000000000000000000000000000000000000000000000008152600401610b1790612db2565b60405180910390fd5b600360008373ffffffffffffffffffffffffffffffffffffffff1673ffffffffffffffffffffffffffffffffffffffff168152602001908152602001600020549050919050565b610b6f61138e565b73ffffffffffffffffffffffffffffffffffffffff16610b8d610d5e565b73ffffffffffffffffffffffffffffffffffffffff1614610be3576040517f08c379a0000000000000000000000000000000000000000000000000000000008152600401610bda90612e72565b60405180910390fd5b610bed60006118e9565b565b600281565b610bfc61138e565b73ffffffffffffffffffffffffffffffffffffffff16610c1a610d5e565b73ffffffffffffffffffffffffffffffffffffffff1614610c70576040517f08c379a0000000000000000000000000000000000000000000000000000000008152600401610c6790612e72565b60405180910390fd5b600047905060003373ffffffffffffffffffffffffffffffffffffffff1682604051610c9b90612b2d565b60006040518083038185875af1925050503d8060008114610cd8576040519150601f19603f3d011682016040523d82523d6000602084013e610cdd565b606091505b5050905080610d21576040517f08c379a0000000000000000000000000000000000000000000000000000000008152600401610d1890612d12565b60405180910390fd5b7f6c114f03096d92b098f0f087d8fd4a756d362d86a9649a07142404e7fd1d77b53383604051610d52929190612ba9565b60405180910390a15050565b6000600760009054906101000a900473ffffffffffffffffffffffffffffffffffffffff16905090565b606060018054610d9790613193565b80601f0160208091040260200160405190810160405280929190818152602001828054610dc390613193565b8015610e105780601f10610de557610100808354040283529160200191610e10565b820191906000526020600020905b815481529060010190602001808311610df357829003601f168201915b5050505050905090565b610e2c610e2561138e565b83836119af565b5050565b610e41610e3b61138e565b836115a4565b610e80576040517f08c379a0000000000000000000000000000000000000000000000000000000008152600401610e7790612f12565b60405180910390fd5b610e8c84848484611b1c565b50505050565b6060610e9d82611322565b610edc576040517f08c379a0000000000000000000000000000000000000000000000000000000008152600401610ed390612e32565b60405180910390fd5b6000600660008481526020019081526020016000208054610efc90613193565b80601f0160208091040260200160405190810160405280929190818152602001828054610f2890613193565b8015610f755780601f10610f4a57610100808354040283529160200191610f75565b820191906000526020600020905b815481529060010190602001808311610f5857829003601f168201915b505050505090506000610f86611b78565b9050600081511415610f9c578192505050610fdf565b600082511115610fd1578082604051602001610fb9929190612b09565b60405160208183030381529060405292505050610fdf565b610fda84611b8f565b925050505b919050565b6000600560008473ffffffffffffffffffffffffffffffffffffffff1673ffffffffffffffffffffffffffffffffffffffff16815260200190815260200160002060008373ffffffffffffffffffffffffffffffffffffffff1673ffffffffffffffffffffffffffffffffffffffff16815260200190815260200160002060009054906101000a900460ff16905092915050565b61108061138e565b73ffffffffffffffffffffffffffffffffffffffff1661109e610d5e565b73ffffffffffffffffffffffffffffffffffffffff16146110f4576040517f08c379a00000000000000000000000000000000000000000000000000000000081526004016110eb90612e72565b60405180910390fd5b600073ffffffffffffffffffffffffffffffffffffffff168173ffffffffffffffffffffffffffffffffffffffff161415611164576040517f08c379a000000000000000000000000000000000000000000000000000000000815260040161115b90612cb2565b60405180910390fd5b61116d816118e9565b50565b6009543410156111b5576040517f08c379a00000000000000000000000000000000000000000000000000000000081526004016111ac90612ef2565b60405180910390fd5b6111bf828261147b565b6111e2604051806060016040528060218152602001613933602191398383611c36565b7f0e6c994740752d33f50d4364eb6e7ff89103e5209e9ee57fd4b30d1823fe3a6e3383604051611213929190612ba9565b60405180910390a15050565b6112b5816040516024016112339190612bed565b6040516020818303038152906040527f41304fac000000000000000000000000000000000000000000000000000000007bffffffffffffffffffffffffffffffffffffffffffffffffffffffff19166020820180517bffffffffffffffffffffffffffffffffffffffffffffffffffffffff8381831617835250505050611cd5565b50565b60007f01ffc9a7000000000000000000000000000000000000000000000000000000007bffffffffffffffffffffffffffffffffffffffffffffffffffffffff1916827bffffffffffffffffffffffffffffffffffffffffffffffffffffffff1916149050919050565b60008073ffffffffffffffffffffffffffffffffffffffff166002600084815260200190815260200160002060009054906101000a900473ffffffffffffffffffffffffffffffffffffffff1673ffffffffffffffffffffffffffffffffffffffff1614159050919050565b600033905090565b816004600083815260200190815260200160002060006101000a81548173ffffffffffffffffffffffffffffffffffffffff021916908373ffffffffffffffffffffffffffffffffffffffff160217905550808273ffffffffffffffffffffffffffffffffffffffff16611409836109fd565b73ffffffffffffffffffffffffffffffffffffffff167f8c5be1e5ebec7d5bd14f71427d1e84f3dd0314c0f7b2291e5b200ac8c7c3b92560405160405180910390a45050565b600081600001549050919050565b611477828260405180602001604052806000815250611cfe565b5050565b61148482611322565b6114c3576040517f08c379a00000000000000000000000000000000000000000000000000000000081526004016114ba90612df2565b60405180910390fd5b806006600084815260200190815260200160002090805190602001906114ea9291906122a4565b505050565b6001816000016000828254019250508190555050565b61159f83838360405160240161151d93929190612c0f565b6040516020818303038152906040527fe3849f79000000000000000000000000000000000000000000000000000000007bffffffffffffffffffffffffffffffffffffffffffffffffffffffff19166020820180517bffffffffffffffffffffffffffffffffffffffffffffffffffffffff8381831617835250505050611cd5565b505050565b60006115af82611322565b6115ee576040517f08c379a00000000000000000000000000000000000000000000000000000000081526004016115e590612d72565b60405180910390fd5b60006115f9836109fd565b90508073ffffffffffffffffffffffffffffffffffffffff168473ffffffffffffffffffffffffffffffffffffffff16148061166857508373ffffffffffffffffffffffffffffffffffffffff1661165084610685565b73ffffffffffffffffffffffffffffffffffffffff16145b8061167957506116788185610fe4565b5b91505092915050565b8273ffffffffffffffffffffffffffffffffffffffff166116a2826109fd565b73ffffffffffffffffffffffffffffffffffffffff16146116f8576040517f08c379a00000000000000000000000000000000000000000000000000000000081526004016116ef90612cd2565b60405180910390fd5b600073ffffffffffffffffffffffffffffffffffffffff168273ffffffffffffffffffffffffffffffffffffffff161415611768576040517f08c379a000000000000000000000000000000000000000000000000000000000815260040161175f90612d32565b60405180910390fd5b611773838383611d59565b61177e600082611396565b6001600360008573ffffffffffffffffffffffffffffffffffffffff1673ffffffffffffffffffffffffffffffffffffffff16815260200190815260200160002060008282546117ce91906130a9565b925050819055506001600360008473ffffffffffffffffffffffffffffffffffffffff1673ffffffffffffffffffffffffffffffffffffffff16815260200190815260200160002060008282546118259190613022565b92505081905550816002600083815260200190815260200160002060006101000a81548173ffffffffffffffffffffffffffffffffffffffff021916908373ffffffffffffffffffffffffffffffffffffffff160217905550808273ffffffffffffffffffffffffffffffffffffffff168473ffffffffffffffffffffffffffffffffffffffff167fddf252ad1be2c89b69c2b068fc378daa952ba7f163c4a11628f55a4df523b3ef60405160405180910390a46118e4838383611d5e565b505050565b6000600760009054906101000a900473ffffffffffffffffffffffffffffffffffffffff16905081600760006101000a81548173ffffffffffffffffffffffffffffffffffffffff021916908373ffffffffffffffffffffffffffffffffffffffff1602179055508173ffffffffffffffffffffffffffffffffffffffff168173ffffffffffffffffffffffffffffffffffffffff167f8be0079c531659141344cd1fd0a4f28419497f9722a3daafe3b4186f6b6457e060405160405180910390a35050565b8173ffffffffffffffffffffffffffffffffffffffff168373ffffffffffffffffffffffffffffffffffffffff161415611a1e576040517f08c379a0000000000000000000000000000000000000000000000000000000008152600401611a1590612d52565b60405180910390fd5b80600560008573ffffffffffffffffffffffffffffffffffffffff1673ffffffffffffffffffffffffffffffffffffffff16815260200190815260200160002060008473ffffffffffffffffffffffffffffffffffffffff1673ffffffffffffffffffffffffffffffffffffffff16815260200190815260200160002060006101000a81548160ff0219169083151502179055508173ffffffffffffffffffffffffffffffffffffffff168373ffffffffffffffffffffffffffffffffffffffff167f17307eab39ab6107e8899845ad3d59bd9653f200f220920489ca2b5937696c3183604051611b0f9190612bd2565b60405180910390a3505050565b611b27848484611682565b611b3384848484611d63565b611b72576040517f08c379a0000000000000000000000000000000000000000000000000000000008152600401611b6990612c92565b60405180910390fd5b50505050565b606060405180602001604052806000815250905090565b6060611b9a82611322565b611bd9576040517f08c379a0000000000000000000000000000000000000000000000000000000008152600401611bd090612e92565b60405180910390fd5b6000611be3611b78565b90506000815111611c035760405180602001604052806000815250611c2e565b80611c0d84611efa565b604051602001611c1e929190612b09565b6040516020818303038152906040525b915050919050565b611cd0838383604051602401611c4e93929190612c4d565b6040516020818303038152906040527fa3f5c739000000000000000000000000000000000000000000000000000000007bffffffffffffffffffffffffffffffffffffffffffffffffffffffff19166020820180517bffffffffffffffffffffffffffffffffffffffffffffffffffffffff8381831617835250505050611cd5565b505050565b60008151905060006a636f6e736f6c652e6c6f679050602083016000808483855afa5050505050565b611d0883836120a7565b611d156000848484611d63565b611d54576040517f08c379a0000000000000000000000000000000000000000000000000000000008152600401611d4b90612c92565b60405180910390fd5b505050565b505050565b505050565b6000611d848473ffffffffffffffffffffffffffffffffffffffff16612281565b15611eed578373ffffffffffffffffffffffffffffffffffffffff1663150b7a02611dad61138e565b8786866040518563ffffffff1660e01b8152600401611dcf9493929190612b5d565b602060405180830381600087803b158015611de957600080fd5b505af1925050508015611e1a57506040513d601f19601f82011682018060405250810190611e179190612650565b60015b611e9d573d8060008114611e4a576040519150601f19603f3d011682016040523d82523d6000602084013e611e4f565b606091505b50600081511415611e95576040517f08c379a0000000000000000000000000000000000000000000000000000000008152600401611e8c90612c92565b60405180910390fd5b805181602001fd5b63150b7a0260e01b7bffffffffffffffffffffffffffffffffffffffffffffffffffffffff1916817bffffffffffffffffffffffffffffffffffffffffffffffffffffffff191614915050611ef2565b600190505b949350505050565b60606000821415611f42576040518060400160405280600181526020017f300000000000000000000000000000000000000000000000000000000000000081525090506120a2565b600082905060005b60008214611f74578080611f5d906131f6565b915050600a82611f6d9190613078565b9150611f4a565b60008167ffffffffffffffff811115611fb6577f4e487b7100000000000000000000000000000000000000000000000000000000600052604160045260246000fd5b6040519080825280601f01601f191660200182016040528015611fe85781602001600182028036833780820191505090505b5090505b6000851461209b5760018261200191906130a9565b9150600a85612010919061323f565b603061201c9190613022565b60f81b818381518110612058577f4e487b7100000000000000000000000000000000000000000000000000000000600052603260045260246000fd5b60200101907effffffffffffffffffffffffffffffffffffffffffffffffffffffffffffff1916908160001a905350600a856120949190613078565b9450611fec565b8093505050505b919050565b600073ffffffffffffffffffffffffffffffffffffffff168273ffffffffffffffffffffffffffffffffffffffff161415612117576040517f08c379a000000000000000000000000000000000000000000000000000000000815260040161210e90612e12565b60405180910390fd5b61212081611322565b15612160576040517f08c379a000000000000000000000000000000000000000000000000000000000815260040161215790612cf2565b60405180910390fd5b61216c60008383611d59565b6001600360008473ffffffffffffffffffffffffffffffffffffffff1673ffffffffffffffffffffffffffffffffffffffff16815260200190815260200160002060008282546121bc9190613022565b92505081905550816002600083815260200190815260200160002060006101000a81548173ffffffffffffffffffffffffffffffffffffffff021916908373ffffffffffffffffffffffffffffffffffffffff160217905550808273ffffffffffffffffffffffffffffffffffffffff16600073ffffffffffffffffffffffffffffffffffffffff167fddf252ad1be2c89b69c2b068fc378daa952ba7f163c4a11628f55a4df523b3ef60405160405180910390a461227d60008383611d5e565b5050565b6000808273ffffffffffffffffffffffffffffffffffffffff163b119050919050565b8280546122b090613193565b90600052602060002090601f0160209004810192826122d25760008555612319565b82601f106122eb57805160ff1916838001178555612319565b82800160010185558215612319579182015b828111156123185782518255916020019190600101906122fd565b5b509050612326919061232a565b5090565b5b8082111561234357600081600090555060010161232b565b5090565b600061235a61235584612f72565b612f4d565b90508281526020810184848401111561237257600080fd5b61237d848285613151565b509392505050565b600061239861239384612fa3565b612f4d565b9050828152602081018484840111156123b057600080fd5b6123bb848285613151565b509392505050565b6000813590506123d2816138b1565b92915050565b6000813590506123e7816138c8565b92915050565b6000813590506123fc816138df565b92915050565b600081519050612411816138df565b92915050565b600082601f83011261242857600080fd5b8135612438848260208601612347565b91505092915050565b600082601f83011261245257600080fd5b8135612462848260208601612385565b91505092915050565b60008135905061247a816138f6565b92915050565b60006020828403121561249257600080fd5b60006124a0848285016123c3565b91505092915050565b600080604083850312156124bc57600080fd5b60006124ca858286016123c3565b92505060206124db858286016123c3565b9150509250929050565b6000806000606084860312156124fa57600080fd5b6000612508868287016123c3565b9350506020612519868287016123c3565b925050604061252a8682870161246b565b9150509250925092565b6000806000806080858703121561254a57600080fd5b6000612558878288016123c3565b9450506020612569878288016123c3565b935050604061257a8782880161246b565b925050606085013567ffffffffffffffff81111561259757600080fd5b6125a387828801612417565b91505092959194509250565b600080604083850312156125c257600080fd5b60006125d0858286016123c3565b92505060206125e1858286016123d8565b9150509250929050565b600080604083850312156125fe57600080fd5b600061260c858286016123c3565b925050602061261d8582860161246b565b9150509250929050565b60006020828403121561263957600080fd5b6000612647848285016123ed565b91505092915050565b60006020828403121561266257600080fd5b600061267084828501612402565b91505092915050565b60006020828403121561268b57600080fd5b600082013567ffffffffffffffff8111156126a557600080fd5b6126b184828501612441565b91505092915050565b6000602082840312156126cc57600080fd5b60006126da8482850161246b565b91505092915050565b600080604083850312156126f657600080fd5b60006127048582860161246b565b925050602083013567ffffffffffffffff81111561272157600080fd5b61272d85828601612441565b9150509250929050565b612740816130dd565b82525050565b61274f816130ef565b82525050565b600061276082612fd4565b61276a8185612fea565b935061277a818560208601613160565b6127838161332c565b840191505092915050565b600061279982612fdf565b6127a38185613006565b93506127b3818560208601613160565b6127bc8161332c565b840191505092915050565b60006127d282612fdf565b6127dc8185613017565b93506127ec818560208601613160565b80840191505092915050565b6000612805603283613006565b91506128108261333d565b604082019050919050565b6000612828602683613006565b91506128338261338c565b604082019050919050565b600061284b602583613006565b9150612856826133db565b604082019050919050565b600061286e601c83613006565b91506128798261342a565b602082019050919050565b6000612891601483613006565b915061289c82613453565b602082019050919050565b60006128b4602483613006565b91506128bf8261347c565b604082019050919050565b60006128d7601983613006565b91506128e2826134cb565b602082019050919050565b60006128fa602c83613006565b9150612905826134f4565b604082019050919050565b600061291d603883613006565b915061292882613543565b604082019050919050565b6000612940602a83613006565b915061294b82613592565b604082019050919050565b6000612963602983613006565b915061296e826135e1565b604082019050919050565b6000612986602e83613006565b915061299182613630565b604082019050919050565b60006129a9602083613006565b91506129b48261367f565b602082019050919050565b60006129cc603183613006565b91506129d7826136a8565b604082019050919050565b60006129ef602c83613006565b91506129fa826136f7565b604082019050919050565b6000612a12602083613006565b9150612a1d82613746565b602082019050919050565b6000612a35602f83613006565b9150612a408261376f565b604082019050919050565b6000612a58602183613006565b9150612a63826137be565b604082019050919050565b6000612a7b601683613006565b9150612a868261380d565b602082019050919050565b6000612a9e600083612ffb565b9150612aa982613836565b600082019050919050565b6000612ac1601283613006565b9150612acc82613839565b602082019050919050565b6000612ae4603183613006565b9150612aef82613862565b604082019050919050565b612b0381613147565b82525050565b6000612b1582856127c7565b9150612b2182846127c7565b91508190509392505050565b6000612b3882612a91565b9150819050919050565b6000602082019050612b576000830184612737565b92915050565b6000608082019050612b726000830187612737565b612b7f6020830186612737565b612b8c6040830185612afa565b8181036060830152612b9e8184612755565b905095945050505050565b6000604082019050612bbe6000830185612737565b612bcb6020830184612afa565b9392505050565b6000602082019050612be76000830184612746565b92915050565b60006020820190508181036000830152612c07818461278e565b905092915050565b60006060820190508181036000830152612c29818661278e565b9050612c386020830185612afa565b612c456040830184612737565b949350505050565b60006060820190508181036000830152612c67818661278e565b9050612c766020830185612afa565b8181036040830152612c88818461278e565b9050949350505050565b60006020820190508181036000830152612cab816127f8565b9050919050565b60006020820190508181036000830152612ccb8161281b565b9050919050565b60006020820190508181036000830152612ceb8161283e565b9050919050565b60006020820190508181036000830152612d0b81612861565b9050919050565b60006020820190508181036000830152612d2b81612884565b9050919050565b60006020820190508181036000830152612d4b816128a7565b9050919050565b60006020820190508181036000830152612d6b816128ca565b9050919050565b60006020820190508181036000830152612d8b816128ed565b9050919050565b60006020820190508181036000830152612dab81612910565b9050919050565b60006020820190508181036000830152612dcb81612933565b9050919050565b60006020820190508181036000830152612deb81612956565b9050919050565b60006020820190508181036000830152612e0b81612979565b9050919050565b60006020820190508181036000830152612e2b8161299c565b9050919050565b60006020820190508181036000830152612e4b816129bf565b9050919050565b60006020820190508181036000830152612e6b816129e2565b9050919050565b60006020820190508181036000830152612e8b81612a05565b9050919050565b60006020820190508181036000830152612eab81612a28565b9050919050565b60006020820190508181036000830152612ecb81612a4b565b9050919050565b60006020820190508181036000830152612eeb81612a6e565b9050919050565b60006020820190508181036000830152612f0b81612ab4565b9050919050565b60006020820190508181036000830152612f2b81612ad7565b9050919050565b6000602082019050612f476000830184612afa565b92915050565b6000612f57612f68565b9050612f6382826131c5565b919050565b6000604051905090565b600067ffffffffffffffff821115612f8d57612f8c6132fd565b5b612f968261332c565b9050602081019050919050565b600067ffffffffffffffff821115612fbe57612fbd6132fd565b5b612fc78261332c565b9050602081019050919050565b600081519050919050565b600081519050919050565b600082825260208201905092915050565b600081905092915050565b600082825260208201905092915050565b600081905092915050565b600061302d82613147565b915061303883613147565b9250827fffffffffffffffffffffffffffffffffffffffffffffffffffffffffffffffff0382111561306d5761306c613270565b5b828201905092915050565b600061308382613147565b915061308e83613147565b92508261309e5761309d61329f565b5b828204905092915050565b60006130b482613147565b91506130bf83613147565b9250828210156130d2576130d1613270565b5b828203905092915050565b60006130e882613127565b9050919050565b60008115159050919050565b60007fffffffff0000000000000000000000000000000000000000000000000000000082169050919050565b600073ffffffffffffffffffffffffffffffffffffffff82169050919050565b6000819050919050565b82818337600083830152505050565b60005b8381101561317e578082015181840152602081019050613163565b8381111561318d576000848401525b50505050565b600060028204905060018216806131ab57607f821691505b602082108114156131bf576131be6132ce565b5b50919050565b6131ce8261332c565b810181811067ffffffffffffffff821117156131ed576131ec6132fd565b5b80604052505050565b600061320182613147565b91507fffffffffffffffffffffffffffffffffffffffffffffffffffffffffffffffff82141561323457613233613270565b5b600182019050919050565b600061324a82613147565b915061325583613147565b9250826132655761326461329f565b5b828206905092915050565b7f4e487b7100000000000000000000000000000000000000000000000000000000600052601160045260246000fd5b7f4e487b7100000000000000000000000000000000000000000000000000000000600052601260045260246000fd5b7f4e487b7100000000000000000000000000000000000000000000000000000000600052602260045260246000fd5b7f4e487b7100000000000000000000000000000000000000000000000000000000600052604160045260246000fd5b6000601f19601f8301169050919050565b7f4552433732313a207472616e7366657220746f206e6f6e20455243373231526560008201527f63656976657220696d706c656d656e7465720000000000000000000000000000602082015250565b7f4f776e61626c653a206e6577206f776e657220697320746865207a65726f206160008201527f6464726573730000000000000000000000000000000000000000000000000000602082015250565b7f4552433732313a207472616e736665722066726f6d20696e636f72726563742060008201527f6f776e6572000000000000000000000000000000000000000000000000000000602082015250565b7f4552433732313a20746f6b656e20616c7265616479206d696e74656400000000600082015250565b7f4661696c656420746f2073656e64204574686572000000000000000000000000600082015250565b7f4552433732313a207472616e7366657220746f20746865207a65726f2061646460008201527f7265737300000000000000000000000000000000000000000000000000000000602082015250565b7f4552433732313a20617070726f766520746f2063616c6c657200000000000000600082015250565b7f4552433732313a206f70657261746f7220717565727920666f72206e6f6e657860008201527f697374656e7420746f6b656e0000000000000000000000000000000000000000602082015250565b7f4552433732313a20617070726f76652063616c6c6572206973206e6f74206f7760008201527f6e6572206e6f7220617070726f76656420666f7220616c6c0000000000000000602082015250565b7f4552433732313a2062616c616e636520717565727920666f7220746865207a6560008201527f726f206164647265737300000000000000000000000000000000000000000000602082015250565b7f4552433732313a206f776e657220717565727920666f72206e6f6e657869737460008201527f656e7420746f6b656e0000000000000000000000000000000000000000000000602082015250565b7f45524337323155524953746f726167653a2055524920736574206f66206e6f6e60008201527f6578697374656e7420746f6b656e000000000000000000000000000000000000602082015250565b7f4552433732313a206d696e7420746f20746865207a65726f2061646472657373600082015250565b7f45524337323155524953746f726167653a2055524920717565727920666f722060008201527f6e6f6e6578697374656e7420746f6b656e000000000000000000000000000000602082015250565b7f4552433732313a20617070726f76656420717565727920666f72206e6f6e657860008201527f697374656e7420746f6b656e0000000000000000000000000000000000000000602082015250565b7f4f776e61626c653a2063616c6c6572206973206e6f7420746865206f776e6572600082015250565b7f4552433732314d657461646174613a2055524920717565727920666f72206e6f60008201527f6e6578697374656e7420746f6b656e0000000000000000000000000000000000602082015250565b7f4552433732313a20617070726f76616c20746f2063757272656e74206f776e6560008201527f7200000000000000000000000000000000000000000000000000000000000000602082015250565b7f45786365656473206d6178696d756d20746f6b656e7300000000000000000000600082015250565b50565b7f696e73756666696369656e742066756e64730000000000000000000000000000600082015250565b7f4552433732313a207472616e736665722063616c6c6572206973206e6f74206f60008201527f776e6572206e6f7220617070726f766564000000000000000000000000000000602082015250565b6138ba816130dd565b81146138c557600080fd5b50565b6138d1816130ef565b81146138dc57600080fd5b50565b6138e8816130fb565b81146138f357600080fd5b50565b6138ff81613147565b811461390a57600080fd5b5056fe416e204e465420772f20494420257320686173206265656e206d696e74656420746f202573557064617465642074686520555249206f6e20746f6b656e20257320746f202573a2646970667358221220fbcf5d154e3ee39f076b391a74ecdd6914775566614fca04d230b222272cda0664736f6c63430008040033",
  "linkReferences": {},
  "deployedLinkReferences": {}
}